:100000000C94BF040C945C330C94DC040C94DC045E
:100010000C94DC040C94DC040C94DC040C94DC04E0
:100020000C94DC040C94DC040C9499310C94713223
:100030000C944E310C94DC040C94DC040C94DC0421
:100040000C94DC040C94DC040C94DC040C94DC04B0
:100050000C94DC040C9475310C94DC040C94DC04DA
:100060000C94DC040C94DC040C94DC040C94DC0490
:100070000C94DC040C94DC040C94DC040C94DC0480
:100080000C94DC040C94DC040C94DC040C94DC0470
:100090000C94DC040C94DC040C94DC040C94DC0460
:1000A0000C94DC040C94DC040C94DC040501098041
:1000B000A101850319012AB700150126B700950192
:1000C00075108100C0050C0901A101850419012AE0
:1000D000A002150126A002950175108100C00660DE
:1000E000FF0961A1010962150026FF00952075082E
:1000F00081020963150026FF00952075089102C052
:1001000005010906A101050719E029E715002501E8
:10011000950875018102950175088101050719008F
:1001200029FF150026FF00950675088100050819AE
:1001300001290515002501950575019102950175A7
:10014000039101C00000000000000000000000005A
:10015000000000000000000000000000000000009F
:1001600000000000000000007E0F00D4FFFFFFC76A
:100170000000007800000000000000002A2B28008A
:100180000000000000000000000000000000002946
:10019000000000002C1E3420212224342627252E86
:1001A000362D3738271E1F202122232425263333BE
:1001B000362E37381F0405060708090A0B0C0D0EEA
:1001C0000F101112131415161718191A1B1C1D2FB6
:1001D0003130232D350405060708090A0B0C0D0ED6
:1001E0000F101112131415161718191A1B1C1D2F96
:1001F0003130354C09025B00030100A0FA0904000C
:10020000000103010100092111010001224400073E
:100210000581030800010904010002030000000930
:10022000211101000122220007058203200001079D
:100230000503032000010904020001030000000976
:100240002111010001223200070584032000011260
:1002500001000200000008EDFE60600001010203E1
:10026000011C037600690061006C003A00660036EC
:10027000003400630032006200330063000000209D
:10028000034500720067006F00440061007300685E
:1002900000200072006500760031002E0032000060
:1002A000000C034F006D006B00620064000000044E
:1002B00003090429001E001F002000210022002F36
:1002C00000350014001A000800150017002D002B3F
:1002D0000004001600070009000A004C00E1001DA0
:1002E000001B000600190005002C00E000E300E2FE
:1002F000003504017E2C004C004600270026002516
:10030000002400230030003100130012000C0018FC
:10031000001C002E00340033000F000E000D000BF7
:10032000002A00E5003800370036001000110028D0
:10033000004F00520051005000027E28002A004465
:10034000003A003B003C003D003E002F0235021EFB
:10035000021F022002210222022D022B001E001F7A
:10036000002000210022004C00E100230024002591
:1003700000260027002C00E000E300E20035040125
:100380007E2C004C00450043004200410040003FED
:100390000030023102270226022502240223022E07
:1003A00002340233020F000E000D000B002A00E59C
:1003B000003802370236021000110028004D004BB1
:1003C000004E004A00027E28002A0044003A003B0A
:1003D000003C003D003E002F0235021E021F02209D
:1003E00002210222022D022B001E001F00200021EC
:1003F0000022004C00E100230024002500260027F5
:10040000002C00E000E300E2003504017E2C004CEB
:1004100000450043004200410040003F00300231EF
:1004200002270226022502240223022E023402336E
:10043000020F000E000D000B002A00E50038023705
:100440000236021000110028004D004B004E004AF9
:1004500000027E28002A00010001000100010001C5
:1004600000010001000100007C207821782478231D
:100470007801000100010002780678047803780111
:100480000001000100010001000100010001000164
:100490000001000100010001000100010001000154
:1004A000000100010001000100010001000100271E
:1004B00078287825782678010001000100010001E4
:1004C0000001000100010001000100010001000124
:1004D0000001000100010001000100010001000114
:1004E0000001002223252628292A2C2D2F303233E3
:1004F0003536383A3B3D3E4042434547494A4C4EEB
:100500005051535557595A5C5E6062646668696B16
:100510006D6F71737577797B7D7F81838587898A1C
:100520008C8E90929496989A9C9E9FA1A3A5A7A822
:10053000AAACAEAFB1B3B4B6B8B9BBBCBEBFC1C252
:10054000C3C5C6C7C9CACBCCCDCED0D1D2D2D3D4E5
:10055000D5D6D7D7D8D9D9DADADBDBDBDCDCDCDC03
:10056000DCDDDDDDDDDCDCDCDCDCDBDBDBDADAD9D1
:10057000D9D8D7D7D6D5D4D3D2D2D1D0CECDCCCB53
:10058000CAC9C7C6C5C3C2C1BFBEBCBBB9B8B6B471
:10059000B3B1AFAEACAAA8A7A5A3A19F9E9C9A9801
:1005A000969492908E8C8A89878583817F7D7B79D2
:1005B000777573716F6D6B6968666462605E5C5AB3
:1005C0005957555351504E4C4A4947454342403E76
:1005D0003D3B3A3836353332302F2D2C2A29282608
:1005E000252322000102030405060708090A0B1748
:1005F000161514131211100F0E0D0CFFAA7F554083
:1006000000010101010101010101020202020202D5
:1006100002020203030303030303030404040404A8
:10062000040405050505050606060606070707076F
:100630000708080808090909090A0A0A0B0B0B0C24
:100640000C0C0D0D0D0E0E0E0F0F0F1010111111C1
:100650001212131314141515161617171818191942
:100660001A1A1B1B1C1D1D1E1E1F202021222223A7
:100670002424252626272829292A2B2C2D2D2E2FE8
:1006800030313232333435363738393A3B3C3D3EFF
:100690003F404142434445464748494A4C4D4E4FEE
:1006A00050515354555658595A5B5D5E5F616264B0
:1006B000656668696B6C6D6F7072737577787A7B3D
:1006C0007D7E8082838587888A8C8E8F9193959694
:1006D000989A9C9EA0A2A3A5A7A9ABADAFB1B3B5B4
:1006E000B7BABCBEC0C2C4C6C9CBCDCFD1D4D6D890
:1006F000DBDDDFE2E4E7E9EBEEF0F3F5F8FAFDFF2E
:100700001E0F0500047F3F1F643214643214783CCE
:100710001E1E140A05FD377A585A000004E6D6B4A6
:10072000460200210116000000742FE5A3E009989D
:1007300002275D003D888986D3DC0AE842C3249203
:100740005842597FBD199CAC446A2CE60C77CDA267
:100750000839BC4E43480915ABF5736E5E66A72A8F
:100760000ED25F789B8283CB8B3569ED96ED557504
:100770003ED75D9C3D3283ED50F8F87F7BE3CA1A8B
:1007800035D480D0D4FB12E93893200DE9F33254EC
:10079000A26F3ED916846C5E70F0182380E8FC527C
:1007A000FCEAA2236138C78BACB27CAA037130602B
:1007B000DFB25002F3390D2B56B4A8951BF604791D
:1007C000BF8A336D8A38B04C27A7EDA249990957E3
:1007D00061C01B4DD96FDF43042FBA2D957990B7B7
:1007E0004C621C14D0C5E084EB42ECED2B29788CD4
:1007F00051C03A9E860EEAF2DAC47E21239508CBD8
:1008000037094EF20B9B60755BF6A8597A20DBC95D
:10081000BF77AB1E7F380EFEC5DDED57BD0A4E011A
:100820000547E5695A9378CA6E116B3CDC9A0BA5B3
:100830009235C2F97497D1BEB0113EF3BEA9B4206F
:10084000AA2B37DC944E380E1A445B0969DBB69F3D
:1008500087ECD4D5230C74F533079C08D068F21DBF
:1008600095BC960813F95897F516BBE94B8809A073
:10087000EBC3E077A5C8DD53E6CCFC469AB402D6BC
:10088000D5B6E17CBA348F3C0A162BFC2EE47213E9
:10089000E8EEB1E5487968589BFDBA819BB2FB68E8
:1008A0008C4CE6B91F596BD03B2F00C4CE787F60CB
:1008B00089E2FEF0CBEBC5111AB300F51BE33B1147
:1008C000220437E3E85793C9E185130B382BE15035
:1008D00027AF535E4D7EA1F5585DBA062A34F76105
:1008E000ABB1C46B795168D2FE67CBA19A3E203F71
:1008F00036C8479BF0AA0DAD6360D58165A44BF166
:100900006456DFEBACBB2E67ECBDD8550D4046CA34
:1009100056B5C3FF42749A0F6AA0B7B56898518F55
:10092000A0B044BB3B43910B59296D984F6E4B03CC
:100930004E20FCB02F6ED1A737B0913F950A2FAC57
:100940003CE6D0510DC49E40A2ECF4A1FADEF9833E
:10095000AEBE8ECA7AAD340A4A4C000000194A92E3
:10096000AC4AC3C1AA0001C3049913000000AD81C1
:100970007FB1C467FB020000000004595A00112433
:100980001FBECFEFDAE0DEBFCDBF24E0A4EDB1E0C3
:1009900001C01D92A930B207E1F711E0A0E0B1E07B
:1009A000EEE3FEE602C005900D92A43DB107D9F733
:1009B0000E94272A0C94B4360C9400009C01FB0181
:1009C0009A9581159F4120F5D901AA27B270832FEE
:1009D0008170B90166277470A9014427587034FFEB
:1009E0000DC08295807FAB2B09F08062672B09F0E8
:1009F0008064452B09F0806809950895AB2B09F0B8
:100A00008260672B09F08460452BB1F38860F4CFD6
:100A100080E0F2CF8093BE0308958093BF030895D2
:100A200021E030E001C0220F8A95EAF78091BF03F0
:100A3000822B0E940D05089521E030E0A90102C03B
:100A4000440F551F8A95E2F7CA0180959091BF0324
:100A500089230E940D050895292F9A3098F5873033
:100A600088F590E037E0239F800D911D1124282FF9
:100A7000277041E001C0440F2A95EAF723E09695DC
:100A800087952A95E1F7FC01EE0FFF1FE80FF91F8C
:100A9000EC5BFC4F20E030E070E05191DF011197FA
:100AA000CB01022E02C0969587950A94E2F78170D9
:100AB00081958527842385278C932F5F3F4F233093
:100AC000310559F70895292F9A3078F5873068F560
:100AD00090E037E0239F800D911D1124682F6770EF
:100AE00023E0969587952A95E1F7FC01EE0FFF1F0D
:100AF000E80FF91FEC5BFC4F40E050E080E02191F3
:100B000030E0062E02C0369527950A94E2F7217050
:100B10003327042E01C0220F0A94EAF7822B4F5F7D
:100B20005F4F4330510559F7089580E00895909143
:100B3000BF0321E030E0F90101C0EE0F8A95EAF72A
:100B4000D90102C0AA0FBB1F6A95E2F7EA2B01C0C8
:100B5000220F4A95EAF7892F8E23E81305C0892FC3
:100B6000822B0E940D0508952095822F8923F9CFAD
:100B70008091C7039091C603981301C008958F5FB9
:100B80008770FACFA8EDB1E0EFEF90E02D918217DA
:100B900051F0EF3F19F4211101C0E92F9F5F96300A
:100BA000A9F7EF3F09F408950E2E000CFF0BEA524F
:100BB000FE4F82830895E8EDF1E09191891303C01F
:100BC000DF0111971C9291E0EE3DF907B1F708950E
:100BD0009091C103809589238093C103282F2770AA
:100BE000211111C0891779F09091080492FF0BC070
:100BF0008695869586950E941C051092C1031092D9
:100C0000C3031092C2030895982F90958091BC035E
:100C100089238093BC0308958091BB03882331F01E
:100C20001092BB031092C5031092C4030895803E36
:100C30009105D1F1C8F48133910509F47FC048F4DE
:100C40008932910509F46FC08A32910509F47DC09B
:100C5000089589339105E1F082389105C9F0853313
:100C6000910509F45BC00895843E9105D1F148F4E3
:100C7000823E910531F1833E910541F181EE90E094
:100C80000895863E9105C1F1873E9105E1F10895F1
:100C9000209107042370211165C02091080423FFCF
:100CA00014C089E290E008952091070420FD43C01C
:100CB0003091080430FF09C024FF4EC080E090E06E
:100CC00008952091070422FDF7CF0895209107048D
:100CD00022FD45C03091080430FD44C024FFF5CF0B
:100CE000EDCF2091080421FFF0CF8091070484FD0F
:100CF000E5CF87EE90E008952091070423FFE5CF2C
:100D000024FDDCCFF6CF2091070423FD2EC03091C7
:100D1000080431FFE3CF84EE90E0089520910704AA
:100D200025FFD3CFBECF2091070425FD21C0209100
:100D3000080423FFCACF89E390E0089520910704B7
:100D400026FFC3CF8AE290E008952091070426FF92
:100D5000BCCF81E390E0089583EE90E0089582EEA9
:100D600090E0089580EE90E0089586EE90E008957A
:100D700085E390E0AACF9091070492FF10C041E074
:100D8000282F2471243009F040E031E0282F287109
:100D9000283009F030E0431711F02CE0822793FF50
:100DA00010C041E0282F2471243109F040E031E0E7
:100DB000282F2871283109F030E0431711F02CE07A
:100DC00082273091080430FF10C051E0282F217194
:100DD000213009F050E041E0282F2871283009F037
:100DE00040E0541711F029E0822731FF10C041E0A4
:100DF000282F2171213109F040E031E0282F28719E
:100E0000283109F030E0431711F029E0822794FDE2
:100E1000877E08951F93CF93DF930E941706EC01FE
:100E2000811522E5920708F053C0811540E594072B
:100E300008F0DDC0803E9105F8F48D3C910508F086
:100E4000AEC0883A910580F4853A910508F099C0C2
:100E50008130910521F00497813A910550F4CE013B
:100E6000DF91CF911F910895885A91094B9708F40B
:100E70008BC0C0E0D0E0F3CF811550E49507F8F4C3
:100E8000C11580E2D80708F0CBC0C83ED10538F3C1
:100E9000CE019A9581159F4160F78D2F0E94BB0668
:100EA000182FCE0199270E941706212F30E0322FEC
:100EB0002227E901CC27DF71C82BD92BD0CF992766
:100EC0000E941706CC27DF70C82BD92BD06AC7CF5A
:100ED000803842E59407C8F5803652E5950708F05A
:100EE00067C0C03482E5D807B0F08C2F8695869510
:100EF000877020E2829FC0011124C37021E030E09E
:100F0000A90102C0440F551FCA95E2F7EA01C82B98
:100F1000D92BDC68A4CFC03252E5D50708F041C018
:100F20008C2F8695869520E2829FC0011124C37084
:100F300021E030E0A90102C0440F551FCA95E2F735
:100F4000EA01C82BD92BDD688ACF803C52E5950792
:100F500060F48F71C03AD24508F03FC090E0982FFE
:100F60008827EC01C46FD06A7ACF805C9245809765
:100F700008F07FCFDC2FCC27CC27DF71C06FD06A81
:100F80006ECFA497D0646BCFC85AD0E0CC0FDD1FD2
:100F9000C256DE4F0990D881C02DD46460CFD06591
:100FA0005ECFCF71D0E0DC2FCC27C16FD06A57CF96
:100FB00086958695877020E2829FC0011124C370B8
:100FC00021E030E0A90102C0440F551FCA95E2F7A5
:100FD000EA01C82BD92BDA6842CF0E94BB06C82F82
:100FE000D0E0DC2FCC27CC27DF71D06238CF8F71D7
:100FF0000E94BB0665E0D695C7956A95E1F7CF706C
:10100000D0E0DC2FCC27282F30E084FF05C054E04F
:10101000220F331F5A95E1F7C22BD32BD0691FCF74
:101020008D2F8F710E94BB06182FCE0199270E9429
:101030001706212F30E0322F222722273F71282B3D
:10104000392BE901D2CF80E00895F894E82FE2959A
:10105000EF70F0E041A18F7021E030E0B90102C0F3
:10106000660F771F8A95E2F7CB01962F9095942310
:1010700091A392A1892B82A3789408950895A0E06A
:10108000B0E0E5E4F8E00C947F34E901E42FF0E00F
:10109000E050FA4F61110BC0E4919E2F8E2F89838F
:1010A000E8839A83CDB7DEB7EAE00C949B34282F0F
:1010B00030E0062F10E0F491EF2F86E0829F600170
:1010C000839FD00C1124EE24EA94F12CC601B701C1
:1010D0000E94D834220F331F45E5469FC001479F29
:1010E000900D1124281B390B822F880F280FC70160
:1010F000801B910BF89FA001F99F500D1124952F93
:10110000209F5001219FB00C1124AB2CBB24D70190
:10111000AA19BB095D01FA9DD001FB9DB00D1124F8
:101120008B2F5701A21AB1089501209F5001219FD2
:10113000B00C309FB00C1124AB2CBB24EA18FB0878
:10114000FE9D9001FF9D300D112463307105C9F0A3
:101150001CEFC11613E0D10650F46130710509F49B
:101160009ECF6230710589F08E2FE32F98CF6430C7
:10117000710571F066307105B9F3E52F9B2F8F2F44
:101180008ECFEB2F852F9F2F8ACF852F932F87CF41
:10119000832FE52FF8CF8091B303823028F481703C
:1011A00082608093B30308958635E8F38170846587
:1011B000F8CFE0EBF3E011828281846082830895AE
:1011C000FA01882311F009950895FB01FCCFA8E0EE
:1011D000B0E0EDEEF8E00C9481348830F0F4811149
:1011E0001DC0809180008F7D80938000809186005B
:1011F000909187008091860090918700E0E0F0E078
:10120000CF0169E070E00E94D83470938B00609346
:101210008A002896E8E00C949D3487E09091800045
:10122000906290938000A0918600B0918700282F53
:1012300030E00E94A53669837A838B839C8327E004
:1012400030E040E050E00E94833669017A01F90104
:1012500080918600909187006CE070E00E94D83405
:101260006C157D0568F6809186009091870000914D
:10127000860010918700209186003091870066E0FB
:1012800070E00E94D834C60ED71EE11CF11CD701B5
:10129000C60145E0880F991FAA1FBB1F4A95D1F7C9
:1012A00089839A83AB83BC83C80166E070E00E94A7
:1012B000D83440E050E0260F371F411D511D698191
:1012C0007A818B819C810E94833629833A834B8368
:1012D0005C83E0918600F0918700CA01B9010E9409
:1012E000AE34DF019B01AC010E9470366D837E83BA
:1012F0008F8398879B01AC0169817A818B819C8166
:101300000E94AE3469837A838B839C83DC01CB019A
:101310005FE0B695A795979587955A95D1F7409137
:1013200086005091870060E070E0481759076A070F
:101330007B0720F48091860090918700BC0165CFE7
:10134000883008F087E0209169032770982F990F63
:10135000990F990F922B9093690321E0983008F42C
:1013600020E09091690320FB90F9909369030E941B
:10137000E7080895EEE6F3E080E090E06DE379E2BF
:1013800044E659E229ED39E2778366835187408745
:1013900033872287978786870196709684309105D8
:1013A00099F70895FA01309709F009950895A3E097
:1013B000B0E0EDEDF9E00C9487349C0180910202DD
:1013C0009091030282179307A1F0309303022093B8
:1013D0000202E0913A03F0913B03309751F083E031
:1013E00089833B832A830680F781E02DCE01019615
:1013F00009952396E2E00C94A334A3E0B0E0E3E087
:10140000FAE00C9487349C018091000290910102D3
:1014100082179307A1F03093010220930002E0911C
:101420003A03F0913B03309751F084E089833B838A
:101430002A830680F781E02DCE0101960995239637
:10144000E2E00C94A3342FB7F894809114039091A8
:101450001503A0911603B09117032FBF0895909123
:10146000080492FF10C098E0899F90011124622B1C
:101470006093C1030E9410050E94230A9093C30346
:101480008093C20308950E94100508959091BB03B4
:10149000292F2823222361F0809589238093BB0381
:1014A000882339F00E94230A8093C4039093C503D4
:1014B000089580E090E0F8CFA4E0B0E0E2E6FAE042
:1014C0000C9487348FB7F89420911403309115034E
:1014D000409116035091170329833A834B835C8311
:1014E0008FBF69817A818B819C812496E2E00C9484
:1014F000A3349C014FB7F894809114039091150385
:10150000A0911603B09117034FBF821B930B089550
:1015100087E797E7909301088093000888E19AE0B5
:101520000FB6F894A895809360000FBE909360006A
:10153000FFCF8091FF0108950895FC019B018091E8
:10154000F5019091F6018617970740F0672B29F473
:101550008091E8008E778093E800C90140E0009711
:1015600041F4411106C08091E80082FF2FC080E065
:10157000089520912E032223A9F12530A9F120916D
:10158000E80023FD2DC02091E80022FDECCF209142
:10159000E80020FFE4CF3091F3002091F2000097A3
:1015A00019F02830310558F041E02830310509F0B4
:1015B00040E02091E8002E772093E800D0CF4191C1
:1015C0004093F10001972F5F3F4FE9CF80912E03A9
:1015D000882341F0853041F08091E80083FFC3CF3C
:1015E00081E0089582E0089583E008958091EF01FD
:1015F00087FF13C08091E80082FF06C08091E80059
:101600008B778093E80004C080912E038111F2CF84
:10161000089580912E038823D9F38091E80080FFFC
:10162000F8CF8091E8008E77ECCF2091E4003091E4
:10163000E50095E6A9018091EC008170882331F0E6
:101640008091E80080FF06C080E008952091E800C6
:1016500022FD1BC080912E03882391F0853091F0EC
:101660008091EB0085FD10C02091E4003091E500F1
:101670004217530701F391509111DCCF84E0089594
:1016800082E0089583E0089581E00895E8EDF0E0B8
:1016900080818E7F80831092E2001092DA00109297
:1016A000E100A0EEB0E08C9181608C9380818F7717
:1016B000808319BCA7EDB0E08C918E7F8C938081E4
:1016C0008F7E80831092EE010895FC01AC014B5F88
:1016D0005F4F8FEF91E32191822728E030E087FF71
:1016E0000BC0880F89272150310921153105B9F721
:1016F000E417F50781F70895880FF5CF982FE42FA9
:10170000E2709093E900891308C0762F242F50E0EF
:10171000E11111C091E0980FF4CF7091EC0020918D
:10172000ED005091F00021FD06C09F5F973049F712
:101730008093E90008953091EB003E7F3093EB00F9
:101740003091ED003D7F3093ED003091EB00316042
:101750003093EB007093EC002093ED005093F00079
:101760002091EE0027FDE1CF0895A0E0B0E0EBEB83
:10177000FBE00C948134C8EDD0E088818F7E8883B3
:10178000E7EDF0E080818160808384E082BF81E0CA
:101790008093EE0188818E7F888302EE10E0F8014D
:1017A00010821092DA0081EEC82ED12CF601108240
:1017B00088818F77888388818068888388818F7DFE
:1017C000888319BC10922E031092ED011092D90259
:1017D0001092EC0190EEE92EF12CF70180818B7FC5
:1017E000808388818160888342E060E080E00E949D
:1017F0007E0BF60180818E7F8083F801808181607D
:101800008083808188608083F70180818E7F8083E0
:10181000888180618883CDB7DEB7E8E00C949D3481
:10182000E091C7039091C60327E0E91302C080E06E
:101830000895AE2FB0E02E9FF0011124E853FC4F25
:101840003181361306C03081381303C0358134131B
:1018500004C0FD013196E770E8CF81E008958091E2
:101860002F03811110C08091D80080618093D8002F
:101870008AE18A95F1F700C08091D90080FF0AC003
:1018800081E080932F0381E090912F03913009F044
:1018900080E0089582E080932F030E94460B10920F
:1018A0002E03F1CFA4E0B0E0E8E5FCE00C9487342F
:1018B0000E942F0C882371F00E945C0A69837A834E
:1018C0008B839C8369817A818B819C812496E2E061
:1018D0000C94A3340E945C0A69837A838B839C8373
:1018E0008091300390913103A0913203B091330382
:1018F00029813A814B815C81280F391F4A1F5B1F68
:1019000029833A834B835C83DDCF0E942F0C88238D
:1019100019F00E94230A08950E94520CCB010895E9
:101920000E942F0C882359F0E0913A03F0913B0379
:10193000309729F00190F081E02D0995089580E01D
:101940000895CF92DF92EF920F931F93CF93DF937F
:10195000CDB7DEB7C854D1090FB6F894DEBF0FBEBD
:10196000CDBF409114018091B30380FF50C0E3EEDE
:10197000F5E09E012F5F3F4F8E01075B1F4FC901AE
:10198000649170E0DB01AA0FBB1FA60FB71FAD5714
:10199000BD4FCD90DD90EC90D901CD92DD92ED92CE
:1019A0009D013196A017B10759F72091130130E03E
:1019B000B901660F771F260F371F820F931F539AA7
:1019C0006BB1677F7BB17860EFB7F89450E09A0114
:1019D000220F331F240F351F280F391F821793073B
:1019E00061F5EFBF8FE594E00197F1F700C00000CB
:1019F000C85BDF4F0FB6F894DEBF0FBECDBFDF91DF
:101A0000CF911F910F91EF90DF90CF90089580912B
:101A1000150190911601282F30E0F901EE0FFF1FFC
:101A2000E20FF31FED57FD4F891708F0A0CF118289
:101A3000108212828F5F3396F7CFDC014D91CD017A
:101A400058E07BB9000000C047FF6BB9440F0000AD
:101A500000C000C000C06BB900C05A9591F7BECF5E
:101A6000EF92FF921F93CF93DF93EC0110E0EE24EF
:101A7000EA94F12C60911701161770F00E94A10CE6
:101A80009A818C8190FF25C08F5F8C83DF91CF91ED
:101A90001F91FF90EF90089580911501810F992774
:101AA000991F9C01220F331F280F391F2D573D4FBF
:101AB00070E0C7010E94EC34962F8C814091B603F0
:101AC0006091B503199F800D11240E943F081F5F8C
:101AD000D1CF8150DACFA0E0B0E0E1E7FDE00C9497
:101AE0007E34EC01A09017018C819A8190FD0DC08D
:101AF000BB24B39481110DC08FEF8A0DBB24B39426
:101B00008093820281E08C8304C0BB24BA94882332
:101B1000B9F3E12CF12CEA14B8F00E94A10C9091D9
:101B20008202E1E0BE1254C08091170181509923D6
:101B300019F08FEF890F91E0809382029C83CDB7DB
:101B4000DEB7EBE00C949A34809115018E0D9F2D39
:101B5000911D8C01000F111F080F191F0D571D4FEC
:101B6000F80111821082128234E0C32ED12C912C04
:101B700080918202890D89313CF168E10E94CA346A
:101B8000892F082E000C990B8E159F0591F48091DA
:101B9000B6038C9DA0018D9D500D11245595479540
:101BA0005595479598016091B5038091B4030E94C3
:101BB0003F089B0CF1E0CF1AD108C114D104C1F643
:101BC0008FEFE81AF80AA7CF87FFDBCF8A0DD9CFAE
:101BD000892F90E001966091170170E00E94EC342B
:101BE000982FAACF0F931F93CF93DF93EC018C8193
:101BF000811109C081E08C831092810292E0909360
:101C00000701809306011091150120911601812F83
:101C100090E0FC01EE0FFF1FE80FF91FED57FD4F9D
:101C2000821750F100E060911701061758F10E94E9
:101C3000A10C8091060120918102280F209381023E
:101C400090910701980F90930701191654F4022EF2
:101C5000000C330B409117014150550B24173507E9
:101C600034F0819580930601813009F41C82DF9164
:101C7000CF911F910F9108951182108212828F5F70
:101C80003396CECF202F30E070E0C9010E94EC34B3
:101C9000810F90E040918102042E000C550BFC0155
:101CA000EE0FFF1FE80FF91F24173507ACF0409126
:101CB0000701042E000C550B421753076CF09F01CF
:101CC0002D573D4F4091B6036091B5038091B40309
:101CD0000E943F080F5FA7CFED57FD4F1182108282
:101CE0001282F8CFAEE0B0E0E8E7FEE00C94833477
:101CF0008D879E87AD85BE8514961C91212F30E07F
:101D0000D9010E94A5369B01AC010E9470366983FF
:101D10007A838B839C83E0E2F0E0E11BF109A5E587
:101D2000B0E09B01AC010E94703669877A878B878F
:101D30009C879F01DF010E940D359B01AC010E9431
:101D40007B366D837E838F8398879B01AC0189816D
:101D50009A81AB81BC81280F391F4A1F5B1F69859F
:101D60007A858B859C850E948336022F30E00A326B
:101D700048F5A901440F551F420F531F559547952C
:101D8000142F1095F12C85E5E82EE01A80911701AB
:101D9000F81630F10E94A10CAD85BE8514969C9179
:101DA00081E0992319F0903219F48FEF80930501A7
:101DB00080910501890FED85FE8584832E96E6E0EE
:101DC0000C949F3485E590E0821B930BAC01440F8B
:101DD000551F480F591F57FFD1CF4F5F5F4FCECFD1
:101DE0008E2DF1FC802F409115014F0D5527551F69
:101DF0009A01220F331F240F351F2D573D4F412FBE
:101E00006091B5030E943F08F394C0CF0F931F93D6
:101E1000CF93DF93EC0100E010E040911701842F95
:101E200090E0081719076CF00E94A10C8C8190E0DB
:101E30000196817099278C83DF91CF911F910F912B
:101E4000089580911501800F912F911D9C01220F03
:101E5000331F280F391F2D573D4F9C816091B503CB
:101E60008091B403469550E0041715074CF499236C
:101E700049F04091B6030E943F080F5F1F4FCDCF3E
:101E80009923B9F340E0F7CFE3EBF3E080818E7F55
:101E900080830E94D908E0EBF3E082818160828335
:101EA0000E94A10C08959091B30390FF11C09091EE
:101EB000150150911601292F30E0F901EE0FFF1F97
:101EC000E20FF31FED57FD4F951718F00E94A10C7C
:101ED00008958183608342839F5F3396F5CFA3E0AB
:101EE000B0E0E5E7FFE00C9485348C01809180023E
:101EF00081110AC09E012F5F3F4F4FEF6FEF0E948D
:101F00003F088A8180938002F8016481613049F042
:101F10006230D1F08091800240E0662331F040E0F1
:101F200015C06091800240E080E00E94530FF801EC
:101F3000848190E0019663E070E00E94EC34848339
:101F40002396E4E00C94A1344091800280E060E0AC
:101F5000ECCFA3E0B0E0EFEAFFE00C94873490917F
:101F6000B30390FF0AC09E012F5F3F4F0E943F08BE
:101F70004B8169818A810E94530F2396E2E00C9481
:101F8000A334CF93DF93EC01EC81F0E0ED51FB4FF4
:101F90004491E3EBF3E0628181810E94A90F8C817F
:101FA0008F5F8C83DF91CF910895CF93DF93EC0106
:101FB000E3EBF3E0438162818C810E94A90F8C8165
:101FC0008F5F8C83DF91CF9108950F931F93CF93F1
:101FD000DF93EB018A0190912E03943079F5809381
:101FE000E9008FEF9091E80095FD07C095ED9A9577
:101FF000F1F7000081508111F5CF8091E80085FF55
:102000001DC00E94150B811114C08091E80085FD50
:1020100006C08091E8008E778093E800F2CF888137
:102020008093F100015011090115110511F021965D
:10203000ECCF8091E8008E778093E800DF91CF911C
:102040001F910F910895CF93DF93D82FC92F48E0A8
:1020500050E0682F792F81E00E94E50F88E0ED2F96
:10206000FC2FA7EFB1E001900D928A95E1F7DF9187
:10207000CF910895BC0143E050E084E00E94E50F59
:102080000895A0E0B0E0E7E4F0E10C947F34F82E8E
:10209000E92EB62EA72E8A018091EA01CC24C394A2
:1020A000D12C8A3018F48AE0C82ED12CC1E0D0E0BF
:1020B0006B2D7A2D8F2D9E2DF8010995811116C05B
:1020C0002196CC16DD0694F0CC9FC001CD9F900DDB
:1020D000900D112420E030E045E34A95F1F700002F
:1020E0002F5F3F4F28173907B9F7E2CFCDB7DEB7DB
:1020F000EAE00C949B349091080492FB222720F98B
:10210000281779F080FB92F99093080460910704F6
:102110007091080484E090E00E94333682E00E94CF
:10212000E8050895682F86E090E00E94153608952E
:10213000882381F06EE085E290E00E94153660EF22
:1021400086E290E00E94153665E387E290E00E9407
:10215000153608956FEF85E290E00E9415366FEF17
:1021600086E290E00E9415366FEFEFCF1F93CF937A
:10217000DF93962F122F632F8430D8F49A30C8F44F
:102180004730B8F4C42FD0E0CC0FDD1F2EE0929F73
:10219000C00DD11D11249CE8899FC00DD11D1124B3
:1021A000CE0189960E941536612FCE018A960E9433
:1021B0001536DF91CF911F910895CF93DF93C1E83A
:1021C000D2E060E0CE010E9415362196C11584E070
:1021D000D807B9F7DF91CF91089585E290E00E948A
:1021E000F1358E3089F486E290E00E94F135803F2F
:1021F00059F487E290E00E94F13591E0853309F0CF
:1022000090E0892F8170089580E0FCCF80E090E01D
:102210000E94FF35863E9E4F19F40E94ED100895EE
:1022200080E008950F931F93CF93DF93843030F5B0
:102230006A3020F5473010F5C42FD0E0CC0FDD1FF9
:102240002EE0629FC00DD11D11243CE8839FC00D7C
:10225000D11D1124CE0189960E94F135082F10E07E
:10226000102F0027CE018A960E94F1359801282B65
:10227000C901DF91CF911F910F91089580E090E007
:10228000F8CF462F672F2091360330913703232B49
:1022900091F4703F39F4403F71F480913403909190
:1022A000350308957A3038F4473028F4843018F430
:1022B0000E941211089580E090E00895A0E0B0E03F
:1022C000E4E6F1E10C9482347C010091BF0380913B
:1022D000BE03082BC3E0D0E010E0C8010C2E02C002
:1022E000959587950A94E2F780FD09C02197A8F794
:1022F000D12C8D2DCDB7DEB7E7E00C949E34DC2ECB
:10230000B7018C2F0E9441110E940A07019771F3B7
:10231000F0CF0F931F93CF93FC0185810081118132
:10232000882391F0662381F0C8010E945E11C82FB6
:10233000682FC8010E942C05B8018C2F0E94411102
:10234000CF911F910F910895C8010E946305C82F76
:10235000F3CFCF93DF93D82FC92F0E945E116D2F3B
:102360007C2F0E9441110E940A07DF91CF910895AE
:10237000FC0184818823A1F0808191810E94A911B0
:10238000282F92959F70963091F060F4925F9F7025
:10239000923030F481E0203F79F030F4283E30F084
:1023A00080E004C09A5FF3CF243FD1F7089581E025
:1023B000283E18F0213FF9CF089508958091BC037D
:1023C0009091C003892B8093D6018091BB03882311
:1023D00019F10E94230A2091C4033091C503821B86
:1023E000930B8838934110F00E940C068091D6011F
:1023F0009091BB03892B8093D60120E088ED91E07A
:10240000FC013081019631112F5F31E08E3D930741
:10241000B9F721110E940C0648E050E06CE373E02C
:1024200086ED91E00E94C435892BA9F088E0E6EDA5
:10243000F1E0ACE3B3E001900D928A95E1F7E09111
:102440003A03F0913B03309731F00280F381E02DA5
:1024500086ED91E009950895CF93C82F8823C9F0A0
:102460008238C9F40E94900C81FD13C089E30E9458
:10247000C2050E94DE112FEF37EE83E0215030407D
:102480008040E1F700C0000089E30E94DB050E9464
:10249000DE11CF9108958338A1F40E94900C80FD45
:1024A000F8CF83E50E94C2050E94DE119FEF21EE66
:1024B00034E0915020403040E1F700C0000083E557
:1024C000E4CF8438A1F40E94900C82FDE2CF87E42F
:1024D0000E94C2050E94DE118FEF91EE24E0815030
:1024E00090402040E1F700C0000087E4CECF8CEFA1
:1024F0008C0F813A70F4E8EDF1E08EED91E02191DE
:10250000C21791F18E179F07D1F78C2F0E94C20539
:10251000BECF80E28C0F883068F4C77021E030E0D5
:1025200001C0220FCA95EAF78091BC03822B8093E9
:10253000BC03ADCF8BE58C0F833038F42C2F2452A5
:10254000330BC9010E94D709A4CFC85ACB3108F078
:10255000A0CFEC2FF0E0EE0FFF1FE256FE4F808180
:1025600091810E94FD0995CF8C2F0E94DB050E946E
:10257000DE11CBCF882309F44DC0823879F40E9454
:10258000900C81FF47C089E30E94C2050E94DE11C2
:1025900089E30E94DB050E94DE110895833859F417
:1025A0000E94900C80FF36C083E50E94C2050E9405
:1025B000DE1183E5EECF843859F40E94900C82FF3F
:1025C00029C087E40E94C2050E94DE1187E4E1CFA2
:1025D0009CEF980F913AE8F290E2980F983050F4FF
:1025E000877091E001C0990F8A95EAF7892F0E94C0
:1025F0000406D1CF9BE5980F933028F480E090E05B
:102600000E94D7090895885A8B3120F480E090E029
:102610000E94FD0908950F931F93CF93C82F00E0E8
:1026200010E0893311F400E510E08C2F0E942C1289
:102630000115110539F48C2F0E94BA12CF911F9108
:102640000F9108958FE99FE00197F1F700C0000016
:1026500001501109EDCFA0E0B0E0E1E3F3E10C940B
:102660008234EC019881992309F49CC09130E1F502
:1026700099818A81913021F422960E940B1305C022
:10268000923029F422960E942C122196EBCF93309F
:1026900021F422960E94BA12F8CF943011F02196BC
:1026A000F4CF229620E030E06AE0AE014F5F5F4F4A
:1026B0008053990B8A30910560F02115310529F37B
:1026C0008FE99FE00197F1F700C000002150310928
:1026D000F4CF629FF001639FF00D11249C012E0F37
:1026E0003F1F8981EA01E1CFE92FF0E0EC58FE4F6E
:1026F000D490292F26952695269530E0F901EC599E
:10270000FE4F84919770F901EC5AFE4FE490F12C42
:10271000092E02C0F594E7940A94E2F741E0E4221E
:10272000FF24F901EC5BFE4F049110E0092E02C07A
:10273000159507950A94E2F701701127E82FF0E04C
:1027400002C0F595E7959A95E2F7E0FD0CC0E1141B
:10275000F104A1F48D2D0E940B130115110509F44C
:1027600094CF8CE28ACF81EE0E942C12E114F10406
:1027700079F48D2D0E940B1381EE07C086EE0E9426
:102780002C128D2D0E940B1386EE0E94BA12E5CFFB
:1027900086EE0E942C128D2D0E940B1386EE0E9455
:1027A000BA12EACFCDB7DEB7E7E00C949E348823A7
:1027B00039F09091BC03892B8093BC030E94DE11F9
:1027C0000895882321F00E9404060E94DE110895D6
:1027D000882339F09091C003892B8093C0030E9415
:1027E000DE110895882341F080959091C0038923DC
:1027F0008093C0030E94DE1108951092BC03E8ED9F
:10280000F1E086E0DF011D928A95E9F780E090E033
:102810000E94D70980E090E00E94FD091092C00359
:102820000E94DE1108950E94FD132FEF84E39CE0C7
:10283000215080409040E1F700C0000088E19AE01C
:102840000FB6F894A895809360000FBE9093600037
:10285000FFCFAAE2B0E0EFE2F4E10C9486348FEE11
:1028600091E0FC0101962091F100208321E0873F57
:102870009207B9F78091F001893009F456C0C8F485
:10288000823009F4B3C0833009F482C0813071F121
:102890008091E80083FFE7C08091EF019091F00103
:1028A0009A3008F0E0C0E92FF0E0EA54F94C0C94BB
:1028B00000358A3009F489C08B3051F78091EF01DF
:1028C000813231F78091F3019091F401892B01F766
:1028D0008091E800877F8093E8000E94F60A80914B
:1028E000F101809304010E94FD13D2CF8091EF018A
:1028F000813A71F68091E800877F8093E8008091AB
:10290000F3019091F401892B61F060E080E090E0A8
:1029100070E00E949D0A8091E8008B778093E80028
:10292000B7CF68E087EF91E0F3CF8091EF0181327C
:1029300009F0AECF8091F3019091F4018D7F892B46
:1029400009F0A6CF8091E800877F8093E80080910E
:10295000E80082FF18C09091F3008091F200029786
:1029600031F48091F100813011F0863021F48091B2
:10297000F1008093FF018091E8008B778093E8005D
:102980000E94F60A85CF80912E038111E0CF80CF7F
:102990008091EF01813A09F07BCF8091F301909112
:1029A000F401892B09F074CF8091E800877F809330
:1029B000E8008091E80080FFFCCF809104018093C3
:1029C000F1008091E8008E77D9CF8091EF018132BC
:1029D00009F05ECF8091E800877F8093E8000E9435
:1029E000F60A8091F2018093EB0152CF8091EF01C2
:1029F000813A09F04DCF8091E800877F8093E8000D
:102A00008091E80080FFFCCF8091EB01D8CF803827
:102A100089F0823841F58091F3018F70873018F585
:102A20008093E9008091EB0085FB882780F9109264
:102A3000E90006C08091EC019091D9029111826069
:102A40009091E800977F9093E8008093F1001092B6
:102A5000F1008091E8008E7723C0811116C080912B
:102A6000F101813011F18091E80083FF0AC080916B
:102A7000E800877F8093E8008091EB00806280937C
:102A8000EB00AA96E3E00C94A234823061F78091C7
:102A9000F101882389F01092E9008091E800877F96
:102AA0008093E8000E94F60ADECF81E0933009F0BF
:102AB00080E08093D902EFCF8091F3018F702FEFE8
:102AC000280F263080F68093E9002091EB0020FF4C
:102AD000E2CF933031F48091EB0080628093EB0081
:102AE000DACF9091EB0090619093EB0021E030E021
:102AF000A90102C0440F551F8A95E2F74093EA00EE
:102B00001092EA008091EB008860E8CF8111ABCF92
:102B10001091F1011F778091E3008078812B8093E1
:102B2000E3008091E800877F8093E8000E94F60A26
:102B30008091E80080FFFCCF8091E3008068809363
:102B4000E30083E0111101C082E080932E038BCF5C
:102B50008058823008F087CF4091F1015091F20106
:102B60004C3D83E0580799F583E08A838AE28983A4
:102B70004FB7F894DE01139620E03EE051E2E32FD8
:102B8000F0E050935700849120FF03C082958F702E
:102B90003F5F8F708A30C8F0895C90E08D939D9381
:102BA0002F5F243161F74FBF8091E800877F8093CA
:102BB000E8006AE270E0CE0101960E949D0A8091D1
:102BC000E8008B778093E8004ECF805DE6CF809160
:102BD000F3019091F401252F33272330310509F4B7
:102BE0004AC078F52130310509F483C08BE590E0C7
:102BF000E4EFF1E02230310509F035CF2091E80013
:102C0000277F2093E8002091F5013091F60182178B
:102C1000930708F49C0140E02115310509F06EC0CE
:102C200041116CC08091E80082FDC9CF80912E03D4
:102C3000882329F2853019F28091E80083FFF2CFD2
:102C4000BECF2132310509F445C02232310509F0E9
:102C50000ACF8330910508F006CFFC01EE0FFF1F6D
:102C6000E75AFE4F0190F081E02D8A5A9E4FDC0119
:102C70008C9190E010C0CA019927423019F183303D
:102C8000910568F4892BB1F4EFEAF2E0E4918E2F1C
:102C900090E0EFEAF2E0009709F4E5CEAFCF0397BA
:102CA00009F0E1CEE1E6F2E0E4918E2F90E0E1E67A
:102CB000F2E0F1CFE1EAF2E0E4918E2F90E0E1EA78
:102CC000F2E0E9CFEFE7F2E0E4918E2F90E0EFE75A
:102CD000F2E0E1CF8330910508F0C5CEFC01EE0FA4
:102CE000FF1FE15AFE4F0190F081E02D89E090E056
:102CF00085CF82E190E0EFE4F2E080CF80912E0377
:102D0000882309F45CCF853009F459CF8091E8001D
:102D100083FD55CF8091E80082FD84CF8091E8004B
:102D200080FF7ACF9091F3008091F2002115310558
:102D300019F08830910550F041E0089709F040E023
:102D40008091E8008E778093E80066CF44914093AD
:102D5000F1003196215031090196E8CF803809F011
:102D600082CE8091E800877F8093E8008091ED011A
:102D70008093F1006ECE811176CE1091F101123068
:102D800008F071CE8091E800877F8093E80010936F
:102D9000ED010E94F60A1123D1F084E080932E0306
:102DA00042E061EC81E00E947E0B42E261EC84E053
:102DB0000E947E0B42E261EC82E00E947E0B42E2C6
:102DC00060EC83E00E947E0B80912E034CCE8091BC
:102DD000E30087FDE2CF81E0E1CFCF93DF93EC0109
:102DE0004A855B856E857F850E94D2099B8190957F
:102DF0008091C00389238093C0038C810E940406C4
:102E00000E94DE1186E0FE0111928A95E9F7DF91BA
:102E1000CF910895CF93DF93EC018D8181FD17C091
:102E200082608D838091C0039B81892B8093C00336
:102E30008091BC039C81892B8093BC030E94DE118E
:102E4000488559856E857F85CE010E94D2091092F2
:102E50006B0310926A038D8180FD03C0CE010E9436
:102E6000ED16DF91CF910895A0E0B0E0EAE3F7E13D
:102E70000C9481348901D42FC52F6B017C010E94F1
:102E8000CB08A8016D2F7C2F88E090E00E942736A8
:102E900098014D2F5C2FB601C70100E20E94373523
:102EA000622F84E290E00E941536CDB7DEB7E8E0ED
:102EB0000C949D34E3EBF3E083E0808311828FEF89
:102EC000828383831482A0EBB3E012968C911297D5
:102ED000836012968C93758123E030E04FEF5FEFB3
:102EE00060E0868197810E94341708958091B7032E
:102EF000833018F48F5F8093B7032091B303309130
:102F0000B4034091B5035091B6036091B70370913B
:102F1000B8038091B9039091BA030E9434170895C1
:102F20008091B703882319F081508093B7032091D3
:102F3000B3033091B4034091B5035091B60360914F
:102F4000B7037091B8038091B9039091BA030E94BE
:102F500034170895A3E0B0E0E0EBF7E10C947F3480
:102F6000F82ED62EE42EB22E9091B30390FF41C0DE
:102F70003091B403381308C08091B503861304C0A0
:102F80008091B603841729F08091B2038260809308
:102F9000B203E92FE695AE2FB0E0AB59BE4F8C914E
:102FA0008093B0039E7F923041F59E012F5F3F4F8B
:102FB0004E2D6D2D8F2D0E943F084B8169818A8196
:102FC0000E94530F3F2D3093B403D092B503E0928B
:102FD000B603BB2071F02091B3036091B7037091E9
:102FE000B8034D2D5E2D8091B9039091BA030E94D4
:102FF00034172396EAE00C949B34823019F4E09065
:10300000B603E0CF8630F9F28930E9F28931D1F6A2
:10301000E9518E2F8170A82EE695F0E0E550FA4F29
:10302000E491C12C0E2F10E060911701C61618F024
:103030000E94A10CC7CF2C2D30E0C09EC001C19EC4
:10304000900D112470E00E94D8348F2DA11013C070
:10305000860F90911501A901490F511D9A01220F68
:10306000331F240F351F2D573D4F4E2D6D2D0E94C0
:103070003F08C394D9CF861BECCFE3EBF3E081810B
:1030800021E043816281885F0E94AA170895E3EBE3
:10309000F3E0818121E04381628188500E94AA1778
:1030A0000895E3EBF3E0628121E1620F08F46FEF32
:1030B00021E0438181810E94AA170895E3EBF3E0A8
:1030C000628121E1621B08F460E021E0438181819B
:1030D0000E94AA170895E3EBF3E0438121E1420F38
:1030E00008F44FEF21E0628181810E94AA170895C0
:1030F000E3EBF3E0438121E1421B08F440E021E0EF
:10310000628181810E94AA170895A8E0B0E0EBE8EF
:10311000F8E10C94863440910703509108036091C4
:10312000090370910A032FB7F894809114039091CA
:103130001503A0911603B09117032FBF841B950BA5
:10314000A60BB70B11E084369105A105B10578F106
:103150000E94520CDC01CB010296A11DB11D898396
:103160009A83AB83BC838091320190913301885E56
:103170009C4F20913101422F50E0253010F044E067
:1031800050E0BE016F5F7F4F0E94D13582E090E03A
:103190000E940234182F882351F00E945C0A609329
:1031A0000703709308038093090390930A03812F08
:1031B0002896E3E00C94A234A0E0B0E0E2EEF8E15F
:1031C0000C948134E82FEB01B901D801C880D98073
:1031D000EA80FB808FB7F8940091140310911503D7
:1031E00020911603309117038FBF0C191D092E096A
:1031F0003F09043611052105310510F4442309F176
:103200000E2F0E2E000C110B88E0E802F0011124A5
:10321000EF5DFE4F81819281885E9C4F408150E03E
:10322000A417B50708F4AD010E94D135C8010E946A
:103230000234882339F00E945C0A688379838A8388
:103240009B8381E0CDB7DEB7E8E00C949D34A1E02C
:10325000B0E0EDE2F9E10C9485348091690380FFE0
:1032600018C0869586958695898341E090912203C2
:10327000981301C040E001E010E09E012F5F3F4F36
:1032800063E073E083E00E94DC182196E4E00C9494
:10329000A13480E0E9CFABE0B0E0E1E5F9E10C94E6
:1032A000853428E0E3EBF3E0CE010196DC010190E8
:1032B0000D922A95E1F73091B0032091B10350911E
:1032C000B20339872A875B8741E09C01511101C015
:1032D00040E00BE010E06FEF72E084E00E94DC1849
:1032E00081111092B2032B96E4E00C94A134A6E075
:1032F000B0E0EDE7F9E10C948434F62E072F80E07E
:1033000090E00E940234182F882309F469C080914C
:103310002401482F50E0882311F041E050E06091F3
:10332000250170912601685E7C4FCE0106960E94B1
:10333000D1354091100350911103609112037091A7
:1033400013032FB7F8948091140390911503A09163
:103350001603B09117032FBF841B950BA60BB70B59
:1033600084369105A105B10538F489E193E00E9406
:10337000650B9E818917A1F181E090E00E940234E3
:103380008823C9F180912C01482F50E0863010F03D
:1033900045E050E060912D0170912E01685E7C4FF8
:1033A000CE0101960E94D13589E193E00E94650B20
:1033B0009E81891320C00E945C0A60931003709361
:1033C0001103809312039093130385E0FE0131965D
:1033D000ABE0B3E001900D928A95E1F781E00CC07B
:1033E00085E0E9E1F3E0DE01119601900D928A9506
:1033F000E1F71111EACF80E095E0EBE0F3E0AF2DCB
:10340000B02F01900D929A95E1F72696E5E00C9485
:10341000A034AAE0B0E0EFE0FAE10C947C348090B4
:10342000FD029090FE0281E090E09093FE02809376
:10343000FD02A12CB12CE12C6501F12C15C0F80185
:1034400025913491472D6F2D8E2D0E94B6100E5F61
:103450001F4F739487E07812F2CF87E0C80ED11C1B
:10346000F3948AE0F81639F08601000F111F0D540D
:103470001D4F712CE4CFE39486E4A80EB11C84E0C8
:10348000E812DACF1A8219821C821B821E821D82E8
:1034900018861F8288E790E09A8789874AE050E083
:1034A00069E572E0CE0101960E9439364AE050E0AB
:1034B00063E672E0CE0101960E9439364AE050E0A0
:1034C0006DE672E0CE0101960E9439364AE050E086
:1034D00067E772E0CE0101960E9439369092FE02B3
:1034E0008092FD022A96EDE00C94983480E00E94D0
:1034F000981060E088E290E00E9415360E94091A58
:103500000E94DD1081E00E9498100895A8E0B0E0CC
:10351000ECE8FAE10C94873466EE7EEF80E090E010
:103520000E94333660E082E090E00E94153660E051
:1035300083E090E00E9415361092BE0360E074E1D3
:1035400084E090E00E94333660E086E090E00E94E4
:1035500015366FEF87E090E00E94153640E050E0AE
:10356000BA0188E090E00E94273660E084E290E0B3
:103570000E94153660E087E190E00E94153660E019
:103580008CE090E00E94153660E08DE090E00E94B3
:10359000153619821A821B821C821D821E821F828E
:1035A000188648E050E068E170E0CE0101960E9484
:1035B000053640E050E0BA0180E290E00E942736F4
:1035C00080E00E9498100E94761A40E050E0BA0114
:1035D0008FE090E00E94273640E050E0BA0183E19E
:1035E00090E00E9427362896E2E00C94A3340E94D3
:1035F000061181110AC00E94861A809169038470A5
:103600008963809369030E94921086E090E00E9493
:10361000F13580936903803420F08770886380934C
:10362000690390916903892F8170882321F0892F84
:103630008695869586950E94E7080895A0E0B0E0FB
:10364000E4E2FBE10C947934FC016280448081E087
:103650008483E3EEF4E07490E2E6F5E0E491C09157
:10366000B603C695C158D0E0CC0FDD1FCD2FDD27A6
:10367000812C75E0972EAA24AA94B12C55245A9433
:10368000E719EE2EF12C80911701881638F00E9470
:10369000A10CCDB7DEB7E0E10C949534C82CD12C49
:1036A00082E0861568F09C9CF0019D9CF00D112431
:1036B000E85FFD4F8091B40380838091B5038183DF
:1036C000411023C09C9CF0019D9CF00D1124E85FEB
:1036D000FD4F13821282809115018C0D9D2D911D3D
:1036E0009C01220F331F280F391F2D573D4F9C9CE3
:1036F000F0019D9CF00D1124E85FFD4F4281618136
:1037000080810E943F088394BECF9C9C80019D9C39
:10371000100D1124085F1D4FF80183818823F1F0FB
:1037200081508383589EC0011124648170E00E94FF
:10373000D834FB01FF27ED51FB4F8491E82FE719A7
:103740005E9EC0011124B7010E94D8348091B60357
:10375000689FB0011124F8017283BDCF0E949E358D
:10376000B5010E94EC348C179D070CF0B4CFF2E049
:10377000F61598F40E949E35B5010E94EC34F801CC
:1037800080830E949E352091B5032695622F70E0BC
:103790000E94EC34280FF80121839C9CF0019D9C31
:1037A000F00D1124E85FFD4F12828091B603893C31
:1037B00058F088EC9C9CF0019D9CF00D1124E85F72
:1037C000FD4F8483838387CF8431A0F784E1F2CFD8
:1037D0006091B303669570E04BE050E088E091E0C3
:1037E0000E94B735892B19F481E08093B1030E94C0
:1037F000850C9093E9028093E8028091B203846083
:103800008093B20308959091B30390FF3EC0882344
:10381000E9F18B32E8F58F77282F220F8091B303DF
:103820008170282B2093B3038091B2038160809331
:10383000B203662381F03091B4034091B5035091F7
:10384000B6036091B7037091B8038091B90390916A
:10385000BA030E9434176091B303669570E04BE0A1
:1038600050E088E091E00E94B735892B99F00E94E2
:10387000D90881E08093EB0220E04091B60360918B
:10388000B5038091B4030E94AA17089581E0C4CFC4
:103890008AE2C2CF0E94E81BECCF8091B3038695E9
:1038A0008F5F8B3208F081E061E00E94031C089575
:1038B0009091B30396958FEF890F913009F48AE2C6
:1038C00061E00E94031C08959091B30390FF08C02B
:1038D0009695981728F0961718F40E944D1C089595
:1038E00061E00E94031C0895A9E1B0E0EAE7FCE171
:1038F0000C947A341D861C86FE013E9688E0DF011A
:103900001D928A95E9F780E9E82E81E0F82E8E0174
:10391000045F1F4F95E9C92E91E0D92E3801AA24E2
:10392000A394B12C3CE9832E31E0932EF7018191D1
:103930007F018F3F09F441C0F894E82FE295EF70C2
:10394000F0E021A18F70A50102C0440F551F8A9598
:10395000E2F7CA01922F982B91A392A18095892317
:1039600082A3789400C0E5E9F1E031E0512C219187
:103970002F3F09F463C0A22FA295AF70A05EB0E004
:103980008C9190E02F7002C0959587952A95E2F76B
:103990008170811153C0832F582A330F8E169F06D2
:1039A00031F7F701319780818F3F11F00E94250890
:1039B00050EA5A95F1F7D8015C920F5F1F4FCE1471
:1039C000DF0409F0B3CF4AE050E0B3018BEC92E0A2
:1039D0000E94C4350091D602892B91F18AE0F3014F
:1039E000ABECB2E001900D928A95E1F781E0809313
:1039F000E7010E94230A9093E6018093E5018091FC
:103A0000E5019091E6010E94790A0597E8F010E03F
:103A10000D501D4F45E050E06BEC72E0C8010E9474
:103A2000C435892B41F085E0EBECF2E0D801019040
:103A30000D928A95E1F71092E70106C080E0ACCFC5
:103A40008091E7018111DBCF0E942F0CE091D6021B
:103A5000882309F484C01A8219829E012D5F3F4F8A
:103A600083E0D9011D928A95E9F70E2F10E00D50E1
:103A70001D4F8091EA018A30E0F547E759E1FE01E8
:103A800031967F01BF01C8010E9441106701882360
:103A900009F453C045E858E1B701C8010E9441103C
:103AA000882309F44AC047E259E1B701C8010E94DE
:103AB0004110882309F441C04BE459E1B701C80122
:103AC0000E9441108823C9F11092EA018091D50229
:103AD00090E045E050E0B6018D509D4F0E94C43506
:103AE00021E02093E401892BD9F46996EFE00C944E
:103AF00096348091E2019091E3010E94790A843F1B
:103B0000914008F0BACF8091E401882371F385E0F9
:103B1000FE013196DF011D928A95E9F71092E401CA
:103B2000A091D502B0E0AD50BD4F85E0FE013196C9
:103B300001900D928A95E1F7D8CF8091EA018F3FED
:103B400039F40E94230A9093E3018093E201DBCFD2
:103B50008F5F8093EA018A3008F4B8CFF2CFF0E0AB
:103B6000ED50FD4F85E0A9E1B3E001900D928A95FB
:103B7000E1F789E193E00E94650B80931803C09000
:103B80001E03D0901F03E0902003F090210380914A
:103B9000DE019091DF01A091E001B091E101C81632
:103BA000D906EA06FB06D1F0C092DE01D092DF0111
:103BB000E092E001F092E1010E942F0C81110EC011
:103BC0000E945C0AC61AD70AE80AF90AC0923003B2
:103BD000D0923103E0923203F092330380912203BA
:103BE0000E94A0098BE0E3E2F3E0DE011196019070
:103BF0000D928A95E1F7809123038695F090240336
:103C0000E0902503D090260300912C0310912D0302
:103C100010922D03112309F468CF10FF0BC0998176
:103C200090FF1CC09091B30391609093B30360E048
:103C30000E94031C11FF06C020E04D2D6E2D8F2D1C
:103C40000E94AA1712FF04C0002359F00E94E81B2B
:103C500013FF4BCF81E08093EB0247CF0E94440FCC
:103C6000E9CF0E94D908F4CF282FCB01243070F47B
:103C70004AE0249F90011124B901675A7D4F4AE020
:103C800050E00E94E13580E090E008958FEF9FEFD3
:103C90000895AAE0B0E0EFE4FEE10C9487349C01C3
:103CA00097558F3F910509F070F4BE016F5F7F4F0C
:103CB000822F0E94341E892B31F489859A852A9699
:103CC000E2E00C94A33488E790E0F9CFA0E0B0E004
:103CD000ECE6FEE10C948234D62E172FC42FD22F9F
:103CE0008823A9F04093AE030E94230A9093E90130
:103CF0008093E801C77081E001C0880FCA95EAF798
:103D00000E94D713CDB7DEB7E7E00C949E348091C4
:103D1000AE03481337C08091E8019091E9010E94F9
:103D2000790A7C018D2D912F0E94491EE816F90613
:103D300048F5CD130CC0802F0E940B13D77081E083
:103D400001C0880FDA95EAF70E94E113DBCFC77054
:103D500011E0812F01C0880FCA95EAF70E94E11394
:103D600080E28D0F883050F48D2F877001C0110FC5
:103D70008A95EAF7812F0E94D713DDCF802F0E940A
:103D80000B13C0CFC77081E001C0880FCA95EAF756
:103D9000DBCFA4E0B0E0EFECFEE10C947F346C01EB
:103DA000FC018481882309F4CAC261E0C6010E9433
:103DB00089118C01F6018581882319F180916A03AC
:103DC00090916B030097E9F008171907D1F0992734
:103DD00074E0880F991F7A95E1F7FC01ED58FC4FCC
:103DE00020812460208382599C4FFC011183008331
:103DF0000E940A171092C00361E0C6010E94891157
:103E00008C01F6018581882309F4BAC0C80197574F
:103E10008038910508F04EC2F02EFFE0F01708F44C
:103E20007EC28FEF93E00E94F135811178C201E8E4
:103E300012E0F1103CC08091490190914A01A0919B
:103E40004B01B0914C0189839A83AB83BC83780189
:103E50004FEFE41AF40AC8010E94F13589831A82EF
:103E6000882309F45CC2813009F084C0580152E013
:103E7000A50EB11CC7010E94F135F82E8A83882354
:103E800009F44DC2C5010E94F135E82E8FEF8F0D68
:103E90008330D8F4EB82EE2021F0CE0101960E940F
:103EA0002B13580183E0A80EB11C8501D0CF01155A
:103EB00024E0120709F433C2C8010E94F1350F5FF4
:103EC0001F4F8111F4CFFA94B4CF8BEF8F0D833055
:103ED00040F5580193E0A90EB11CEB82EE2029F3C6
:103EE000C5010E94F1358C83882381F08B819C81F0
:103EF0008130EFEF9E0710F0982F8827F6E0FF162D
:103F000051F027E0F21651F00E943029580144E0A8
:103F1000A40EB11CCACF0E94CA28F8CF0E94FD2867
:103F2000F5CF54E0F512C1CF580184E0A80EB11CC2
:103F3000C80103960E94F135EE2009F4F0C18823F0
:103F400009F4EDC18150990B4FEF489F9001499FB3
:103F5000300D1124EE2DE150FF0B2E0F3F1F21508D
:103F6000310908F4A2CF8FE99FE00197F1F700C073
:103F70000000F5CFCE0101960E942B13570195CF7B
:103F80000115E7E51E0708F476C20115F8E51F07DD
:103F900008F468C002302EE7120709F4E3C108F004
:103FA00045C001155EE7150709F4B9C101308EE778
:103FB000180709F4D1C180E0980137552F3F31052A
:103FC00011F008F021C2F801FF2744E0EE0FFF1FB7
:103FD0004A95E1F7AF0142595C4F7A01ED58FC4F29
:103FE00080818E7F8083FA0144855585668577853B
:103FF000C7010E94D209F701858181FF3CC2C70138
:104000000E94ED1680916A0390916B0308171907BF
:1040100009F031C210926B0310926A03F601858198
:104020008111E5C506312CE712072CC203309EE74B
:10403000190709F499C1F6018581811145C206313C
:10404000FCE71F0709F420C28091BC038272F801CB
:10405000E052F847E531F10508F0BEC0E054F94CF4
:104060000C9400357801E7E5FE1A6FE573E08E2DBC
:104070000E94341E892B39F5C70154E0880F991F1F
:104080005A95E1F7FC01E259FC4F2281213009F0F9
:1040900041C020915F0330916003232B09F468C174
:1040A0002091610330916203232B09F446C02091D3
:1040B0006303309164034091650350916603242BA0
:1040C000352B232B81F1F6018581882309F47BCFE1
:1040D000043028E7120708F450C1043098E71907A4
:1040E00009F45AC181E00530E8E71E0709F08CC1E8
:1040F000809169038695869586958F5F8F7188304C
:1041000008F080E0880F880F880F909169039770FE
:10411000892BE9C0223009F02BC120916303309133
:104120006403232B51F0FC01ED58FC4F20812E7FBE
:10413000208382599C4F0E940A17F60185818823AB
:1041400009F441CF023058E7150709F43BC10115C6
:1041500088E7180709F418C1C80197558F3F9105E2
:1041600011F008F03FC57801FF2434E0EE0CFF1C8D
:104170003A95E1F7F701ED58FC4F8081816080832B
:104180000E94230A90936D0380936C03A701425908
:104190005C4F7A01FA0182818F5F82838091C00334
:1041A0009091BC03892B83838091BB0384834681D8
:1041B000578166857785C7010E94D209F7018581FD
:1041C00081FD1FC1902F812F90936A0380936B0311
:1041D000F6018581811160C107378CE7180709F462
:1041E000BBC008379CE7190709F4BCC0F6018581FC
:1041F000E080F180882309F4DCC2C7010E945E11CF
:10420000182F682FC7010E942C05B701812F0E942B
:1042100041110E940A078C01F601B580A680A29484
:104220002FE0A2228091C10387708823F1F0EB2C4C
:10423000BB20E1F0812F807F803451F080E2800F3D
:10424000883098F0A11004C0812F807E803269F000
:104250008091080482FF09C082E00E94E8058091F5
:10426000C1038770EE24E3948111E12C812F8295A4
:104270008F70883009F4A9C308F0BCC2843008F0FC
:104280009DC2F12FFF70FF2E823008F4C4C2107F50
:10429000103219F0F29480EFF822002309F4F2C2F0
:1042A000013009F457C3BB2009F463C3AA2009F401
:1042B00007C3C7C20230FEE71F0709F451C0F0F47C
:1042C00001154EE7140719F101305EE71507D9F122
:1042D0000330F8E71F0709F0FBCE809169038830AF
:1042E00008F489C088508093690391E0883008F40D
:1042F00090E08091690390FB80F961C003308EE704
:10430000180709F098CE83E00E94100508C061E00C
:1043100083E090E00E94153681E00E940A058091BA
:10432000C1038770882359F0F6018581882339F00D
:104330008091080482FF03C082E00E94E805249671
:10434000EAE00C949B3481E00E94100543E062E0B7
:1043500081E00E949705E3CF81E00E941C05F6CF23
:1043600082E0F2CF82E0F9CF83E00E941C05D7CF34
:10437000F6018581882309F426CE013048E7140729
:1043800009F0E0CE80E001C087E00E94A0098091A2
:1043900069030E949210C3CF90916903892F86957B
:1043A00086958695983340F48F5F880F880F880F25
:1043B0009770892B80936903809169038160809352
:1043C000690317C08091690380FF09C08E7F8093C5
:1043D00069030E94921080E00E94E708A0CF8160EC
:1043E00080936903813019F489E080936903809197
:1043F00069030E949210809169038695869586953F
:10440000EBCF90E080E0E0CEF801E851FC47E730E8
:10441000F10508F010CEEB52F94C0C94003506E291
:1044200021EE41EE6AE17CE70E94661E78CF07E24A
:1044300025EE45EE6BE17CE7F7CF06E221EE40EE9C
:1044400068E17CE7F1CF07E225EE44EE69E17CE725
:10445000EBCF06E221EE42EE6CE17CE7E5CF07E22E
:1044600025EE46EE6DE17CE7DFCF08E221E045EE88
:104470006EE17CE7D9CFF60185818111B8C30631A1
:10448000FCE71F0709F0A8CE8091AF038111F3C0AC
:1044900089E20E94DB0515C01092AE0306312CE7BD
:1044A000120709F0ABC38091BC038A7A91E08111B5
:1044B00001C090E09093AF038111DBC089E20E94BC
:1044C000C2050E94DE112BCF1092AE03C801905797
:1044D000839720F784E090E00E94FF3590930804D2
:1044E00080930704F801E150F047E232F10520F42F
:1044F000E452F94C0C94003580910704816080935C
:104500000704609107047091080484E090E00E9421
:1045100033360E94FD1303CF809108048860809396
:104520000804EFCF809107048260E9CF80910704EF
:104530008460E5CF809107048860E1CF8091080412
:104540008160EDCF809108048260E9CF80910704FB
:104550008061D5CF809107048062D1CF809107041C
:104560008064CDCF0E94FD13809107048068C7CF7F
:10457000809107048C60C3CF809108048360CFCF03
:10458000809107048E7FBBCF80910804877FC7CFBF
:10459000809107048D7FB3CF809107048B7FAFCFCD
:1045A00080910704877FABCF809108048E7FB7CFBF
:1045B000809108048D7FB3CF809107048F7E9FCFB9
:1045C000809107048F7D9BCF809107048F7B97CFCD
:1045D0000E94FD13809107048F7791CF809107048B
:1045E000837F8DCF809108048C7F99CF80910704C1
:1045F00082FB992790F921E0922790FB82F990FBAA
:1046000083F97DCF80910804982F909591708E7FCB
:10461000892B90FB81F983CF90910704892F8F7BA1
:1046200096FF80646CCF0E94FD1390910704892F40
:1046300097FB87F9805863CF61E08EE090E00E949D
:1046400015365FCF60E0F9CF90910704892F8F7EF8
:1046500094FF806154CF90910704892F8E7F90FF43
:1046600081604DCF90910804892F877F93FF8860E8
:1046700056CF85E324CF85E30CCF8091B30380FF31
:104680001EC0282F2E7F2093B3033091B403409196
:10469000B5035091B6036091B7037091B803809150
:1046A000B9039091BA030E9434170E94D9088091EF
:1046B000B20381608093B2030E94A10C30CE81606E
:1046C0008093B30361E086950E94031C28CE48E5E1
:1046D0005CE16DE47CE10E94E00821CE4DE45CE108
:1046E00068E57CE1F8CF47E458E16DE378E1F3CF8A
:1046F0004DE358E167E478E1EECF4EE558E161E53E
:1047000078E1E9CF41E558E16EE578E1E4CF48E7AB
:1047100058E16BE678E1DFCF4BE658E168E778E1F6
:10472000DACF40E957E166E777E1D5CF46E757E1D1
:1047300060E977E1D0CF61E081E0C6CF65E082E05B
:104740000E94641CECCD68E086E0FACF6EE089E060
:10475000F7CF64E18FE0F4CF67E185E1F1CF61E06D
:1047600088E1B2CF62E289E1EBCF61E083E2ACCFD6
:104770006AE285E2E5CF0B358CE71807C1F00C350E
:104780001C4709F033CD8091080482FB882780F90B
:1047900091E089270E947B1029CD6FEF7FEF80E0A9
:1047A00090E00E9433360E94131481E0F3CF80E042
:1047B000F1CFC7010E946305182F27CD843009F47B
:1047C000E9C0EE2009F4D7C18091C10380FDD3C1B7
:1047D000F60115828695869586950E941005C6017C
:1047E0000E94C91E8091C1038695869586950E9478
:1047F0001C05C1C1893009F457C18A5F8F708230AE
:1048000000F7023F09F061C1812F8F71B1105AC1C9
:104810000E94100507C1103118F0F29490EFF922B0
:10482000BB20B9F0FF2069F080E2800F883010F0E3
:10483000011109C08091BC038F298093BC030E94A1
:10484000DE11802F2FC08091C0038F298093C00379
:10485000F6CF802F0E94BA12FF2009F4B2CF80E277
:10486000800F883010F0011104C08F2D0E940406C3
:1048700006C0F0948091C0038F218093C0030E94F2
:10488000DE119FCF8091080482FD16C0BB2069F025
:10489000FF2039F08091BC038F298093BC030E94D4
:1048A000DE1180E00E942C128CCF80E00E94BA12B0
:1048B000FF2009F486CFD9CFBB2071F1A11004C02D
:1048C0008F2D0E94D7137DCF21E0A21211C010912D
:1048D000BB038F2D8123F81609F473CF0E94230A9E
:1048E0009093C5038093C4031F291093BB0369CF22
:1048F00045E0A41266CF8F2D0E94D7138F2D0E9402
:10490000460A8091BD039F2D9823F91609F459CFCB
:104910008F298093BD0355CFA11012C08F2D0E9407
:10492000E1138F2D0E94460A8091BD039F2D98238D
:10493000992309F446CFF094F822F092BD0341CFB9
:1049400051E0A5123ECF8091BC038F21882309F44A
:1049500038CFE4CFBB2029F085E08A1508F431CFA9
:10496000AFCF94E09A1508F42CCF8F2D0E94E1135D
:1049700028CFAA20D1F3093349F4EFEFF7EE23E073
:10498000E150F0402040E1F700C00000802F0E947D
:10499000BA1217CF812F869586958370882361F090
:1049A000813009F00ECFC8019370B11002C080E0D1
:1049B00090E00E94FD0905CFC8019370B11002C0BC
:1049C00080E090E00E94D709FCCE812F8370811196
:1049D00034C0B11027C0402F429546954770440F10
:1049E000440F802F8F70042E01C0880F0A94EAF7BD
:1049F0000071002341F02FE030E001C0220F4A9502
:104A0000EAF7022F0095169516951370123081F073
:104A1000133061F02091BE03113039F0802B8223D6
:104A20000E940A050E94900CCCCE822B802BF8CFDE
:104A3000802B9091BE038927F3CFBB2051F110FF4B
:104A4000F1CF402F429546954770440F440F802F79
:104A50008F70042E01C0880F0A94EAF700710023BA
:104A600041F02FE030E001C0220F4A95EAF7022F13
:104A70000095169516951370123089F0133069F071
:104A80002091BF03113041F0802B82230E940D053D
:104A9000C9CF823038F2D5CF822B802BF7CF802B35
:104AA0009091BF038927F2CF1F70BB2039F0812F6F
:104AB0000E941005802F0E94D713B4CF802F0E9430
:104AC000E113812F0E941C05ADCF033F70F4003F1E
:104AD000B9F0013FB9F1BB2009F472C0AA2009F472
:104AE0006CC0802F0E942C129DCF033FD9F0043F51
:104AF00029F1B110F3CFA11071C0812F8F71E2CFD6
:104B0000BB2069F044E04A1508F48CCF1F7181E0A6
:104B100090E0012E01C0880F0A94EAF7C1CF55E05A
:104B2000A516F2CF80E0BB2009F4B0CF1F7181E061
:104B3000012E01C0880F0A94EAF7A8CF80910804DB
:104B400082FD06C0812F8F71BB2009F4BBCF60CEE0
:104B5000BB2011F18091C1038770843089F41092D9
:104B6000C1031092C3031092C203812F8F710E9460
:104B70001C050E94900C60E0C6010E948911DFCBE9
:104B800084E08A15B0F31F71812F0E94100563E045
:104B9000812F0E942F0AEDCF94E09A1550F41092C5
:104BA000C1031092C3031092C20364E0812F8F717E
:104BB000F0CF81E00E94E805DCCF812F8F7128CEF5
:104BC000AA2009F49ACF093349F4EFEFF7EE23E076
:104BD000E150F0402040E1F700C00000802F0E942B
:104BE000BA1220CFF6018581882309F4F5CA109204
:104BF000AE03C8019057839708F46CCC07374CE795
:104C0000140709F4A0CB08375CE7150709F4A8CB13
:104C10000A35ECE71E0709F4C8CD08F0ACCD013029
:104C20002CE7120709F4BFCD03304CE7140709F451
:104C3000B4CD01151C4709F0D9CA0E94FD13EFEF4E
:104C4000F4E32CE0E150F0402040E1F700C0000028
:104C50000E94880AA0E0B0E0E0E3F6E20C9482341F
:104C600080910604803108F049C0809105048823B2
:104C700009F444C0C091C70387E0D82E8091C603D1
:104C80008C17E1F1EC2EF12CDC9EE0011124FE01E9
:104C9000E853FC4F84818823B1F191818091010414
:104CA000981331C090818091000498132CC08581A5
:104CB000811129C002811381809102049091030423
:104CC000081B190B60E080E094E00E9489110E94AB
:104CD000491E08171907B8F4809106048F70806187
:104CE00080930604C253DC4F88818F708061888373
:104CF00080E094E00E94C91E0E94B805CDB7DEB7DF
:104D0000E7E00C949E34E7012196C770B7CFADE081
:104D1000B0E0EDE8F6E20C947A348C0186E0F8011C
:104D2000DE01189601900D928A95E1F7F801C08096
:104D30005180F580A280B380E48080E0882E84E0FA
:104D4000982E80910404811118C0EE2099F0FF2064
:104D500009F44FC1C8010E94B811882309F449C160
:104D600087E0F801A0E0B4E001900D928A95E1F7A8
:104D70000E942A26FF24F3945DC0D0900504809100
:104D80000204909103043501681A790A60E080E01A
:104D900094E0DD2009F4EBC00E9489110E94491EB5
:104DA0006816790608F09EC0EE2021F3E090060414
:104DB00090910104F8018181FFE0FE1508F45BC0C9
:104DC000981317C090910004F8018081981311C0C6
:104DD000F1104BC08E2D8F7080618093060480E0AF
:104DE00094E00E94C91E80910604F8018683F12C8C
:104DF00021C0F1103AC040E0652D8C2D0E94100CAE
:104E000040E0652D8C2D0E94100CF82E8111EFCF03
:104E1000888599850E94A911292F22952F70903499
:104E200070F49F702230A0F09923B1F0F8019681C0
:104E3000903190F48F2D2D96EFE00C9496342A5FEC
:104E40002F70223068F0C8010E94C91EFD2CF2CFDD
:104E5000992311F0882371F3805E883058F3F3CFE3
:104E6000803F40F3815F8230F9CF809106048160FA
:104E700080930604BCCF981315C090910004F801EC
:104E8000808198130FC0F1100DC0E682C8010E9406
:104E9000C91E87E0F801A0E0B4E001900D928A9568
:104EA000E1F768CFC8010E94B811882309F4A1C0B6
:104EB000FF2009F49EC080910604803208F450CF90
:104EC00080910004909101049A838983BC82AB8213
:104ED000809104048D831E82EF82CE0101960E9490
:104EE000C91E3ECFD0900604FFE0FD1550F080E0D3
:104EF00094E00E94C91E87E0F40111928A95E9F7B7
:104F000076CFEE2009F436CF90910104F80181812B
:104F1000981311C090910004808198130CC0F11077
:104F20000AC0D682C8010E94C91E87E0F40111920E
:104F30008A95E9F71FCFC8010E94B811882309F4A8
:104F400058C0FF2009F455C080910604803208F44F
:104F500007CF80910004909101049A838983BC82D9
:104F6000AB82809104048D831E82DF82B6CF0E94C3
:104F700089110E94491E6816790608F0BCCFEE2000
:104F800009F4F8CEFF20A9F190910104F801818184
:104F9000981325C0909100048081981320C08091BF
:104FA000020490910304A81AB90AF8E7AF16B104F5
:104FB00008F06FCF8091060480FD6BCF803108F43C
:104FC00068CFF8018683982F907F903F09F45ECFD9
:104FD000982F907F905F8F70892B868357CFC80161
:104FE0000E94B8118111BCCE80910604816080932B
:104FF0000604C8010E94C91EBDCEABE1B0E0E3E0EB
:10500000F8E20C9486344E8B5F8B688F798F8A8F91
:105010009B8F91111092C0031D8A86E0FE01769647
:10502000DE011F9601900D928A95E1F780910804A8
:1050300082FF1FC00E94230A2091C2033091C30344
:10504000821B930B8838934138F08091C10382FD15
:1050500003C082E00E94E8050E94230A2091C40355
:105060003091C503821B930B8838934110F00E9446
:105070000C068B89882329F061E0CE010F960E94EF
:10508000891187E0FE013F96DE01189601900D928E
:105090008A95E1F7CE0108960E948726811110C0FB
:1050A00087E0FE013896DE01119601900D928A95F7
:1050B000E1F72091C6034091C7038C8581110BC095
:1050C00017E08091C7039091C60389132EC06B9699
:1050D000E3E00C94A23430E0C9010196877099276F
:1050E00050E08417950771F40E94FD131092C603D7
:1050F0001092C70387E0E0E0F4E0DF011D928A959B
:10510000E9F7DECF97E0929FD001939FB00D112475
:10511000A853BC4FFE01319601900D929A95E1F78C
:105120008093C6030E94B805CBCF189FC0011124FD
:1051300088539C4F0E948726882349F28091C70399
:1051400090E00196877099278093C703BACFA6E0B5
:10515000B0E0EDEAF8E20C9485340E94230A8C0159
:1051600080913803909139038017910779F0198263
:105170001A820E94230ABC0149815A8180E090E092
:105180000E94FD2710933903009338032696E4E02C
:105190000C94A134A6E0B0E0E0EDF8E20C94853484
:1051A0008C019093350380933403011580E2180736
:1051B000B0F4C801805E9109089728F068EE73E1A9
:1051C0000115110511F467ED73E1C8010E94DE04B9
:1051D000802F0E942C122696E4E00C94A13480EFDC
:1051E00089838A830E94230A8160BC0149815A8194
:1051F00081E091E00E94FD27EECFA6E0B0E0E3E081
:10520000F9E20C9485348C01909335038093340338
:10521000011580E21807B0F4802F0E94BA12C8016D
:10522000805E9109089728F062EF73E1011511057E
:1052300011F461EE73E1C8010E94DE042696E4E0F9
:105240000C94A13480EF89838A830E94230A8160B1
:10525000BC0149815A8181E090E00E94FD27EECF98
:10526000CF93DF93D82FC92F0E94CA288D2F9C2F50
:105270000E94FD28DF91CF9108950F931F93CF9344
:10528000DF938C01862F6FE573E00E94341E892B1B
:10529000B1F4C0915F03D0916003209781F0F801D1
:1052A0008281833051F4CE010E943029CE010E94C8
:1052B0003029CE010E94302902C08430D0F7DF911E
:1052C000CF911F910F9108950F931F93CF93DF9369
:1052D0008C01EB016FE573E08C2F0E94341E892B4B
:1052E00009F05AC0FE01FF27D80112968C9112973F
:1052F000EC5FFD4F8130A9F415968C9182FD51C071
:1053000080FF4FC082E080838091610390916203AF
:105310000097B9F480915F03909160030097E1F1E9
:1053200010C08230B9F515968C9182FD28C080FDA1
:105330000BC083E0808380916303909164030097A6
:1053400001F10E94CA2828C084E08083809165030F
:10535000909166030097A9F780915F039091600395
:10536000009711F10E9430298091610390916203AE
:10537000009739F780915F0390916003E2CF85E059
:10538000808380915F0390916003009729F00E94D1
:105390003029F0CF86E08083DF91CF911F910F916C
:1053A000089581E08083B6CF80916103909162037C
:1053B000B5CF0F931F93CF93DF938C01EB016FE574
:1053C00073E08C2F0E94341E892B71F4DD27CC5F93
:1053D000DD4F8881F801128218828330F1F048F4A1
:1053E000813059F0823081F0DF91CF911F910F9180
:1053F00008958430B9F08530B9F780915F039091BA
:105400006003009789F306C0809161039091620365
:10541000009799F30E94FD28E7CF80916303909154
:105420006403F6CF8091650390916603009791F72E
:1054300020915F033091600380916103909162033A
:1054400021153105F1F2009729F7C901E3CFCDB756
:10545000DEB7AE970FB6F894DEBF0FBECDBF85B7EF
:10546000806885BF85B7806885BF84B7877F84BF24
:105470000FB6F894A89580916000886180936000D1
:10548000109260000FBE80E890E00FB6F894809311
:105490006100909361000FBE83E298E09093D50184
:1054A0008093D4010E94BA090E94460B0E94B50B5A
:1054B0008091E20084608093E200789480912E03D2
:1054C000882399F08091E9001091EC00179511273D
:1054D00017958F70182B1092E9008091E80083FDDA
:1054E0000E9429141F701093E90082E084BD93E0AC
:1054F00095BD9AEF97BD80936E0010923003109285
:10550000310310923203109233030E94ED10811187
:1055100002C00E94761A0E942F0C8093180180917D
:105520001801811174C08CE0809313018CE080938A
:1055300014010E942F0C81110E94143380911801D4
:105540008091180190E0811101C095E09093D602FE
:1055500085E0891B8093D50200E911E0E5E9EE2E94
:10556000E1E0FE2ED8018D918D018F3F11F00E9458
:105570002508E016F106B1F705E911E07CE9E72E10
:1055800071E0F72EF80181918F018F3F11F00E9499
:105590002508E016F106B1F78AE0E3EFF2E0DF015B
:1055A000282F1D922A95E9F7EBECF2E0DF011D921E
:1055B0008A95E9F70E940611811102C00E94861A9D
:1055C00082E090E00E94F1358093DA0284E090E07E
:1055D0000E94FF3590930804809307040E94741C76
:1055E000BFEFE6E7F1E0B150E040F040E1F700C086
:1055F00000000E94741C8091F30280FF0AC06FEFCC
:105600007FEF80E090E00E9433360E94880A80E0BD
:105610008BCF83E090E00E94F1350E940A05269A24
:105620002E9882E28093800089E1809381008FEF41
:105630009FEF90938700809386000E94F71A0E9444
:10564000F71A8091D70281118FC00E940611811133
:1056500004C00E94861A0E945A1788E090E00E94B7
:10566000F9356B017C0184E290E00E94F135282F2E
:1056700030E040E050E060E070E080E090E000E288
:105680000E941C35E22FA32EB42EB52FA62FF72F84
:105690009701860140E050E0BA01EC29A12AB22A24
:1056A000B32BA42BF52B862B972BE093B303A0925F
:1056B000B403B092B503B093B603A093B703F093CD
:1056C000B8038093B9039093BA038091B2038360C7
:1056D0008093B203E230C8F50E945A1788E090E048
:1056E0000E94F9356B017C0184E290E00E94F13563
:1056F000282F30E040E050E060E070E080E090E093
:1057000000E20E941C355901B42FA52FF62FE72F78
:105710009701860140E050E0BA01AC28B12AB22BD3
:10572000A32BF42BE52B862B972BA092B303B092DF
:10573000B403B093B503A093B603F093B703E0931B
:10574000B8038093B9039093BA030E94CB080E94D8
:10575000D9088091B30380FF04C060E086950E9461
:10576000031C81E08093D7020E942F0C811102C09C
:105770000E94173389E191E090933B0380933A03B1
:1057800058E1252E312C6DEF462E62E0562E809189
:105790002E03853059F480912E03853009F454C0CE
:1057A0000E94FD130E94F71A0E94900C0E94741C24
:1057B0000BED12E043EFE42E42E0F42ED701F801A6
:1057C00091918D9132E0E53EF30709F48EC0981770
:1057D000B9F30E942F0C882ED12CD701CD907D01DA
:1057E000F80191908F019C1441F19C24B12CAA24C2
:1057F000A394892D8A218823C1F08820B1F0B98231
:10580000DA820E94230A9C838B83F1E0FD8391E07E
:105810008C2D8A21811101C090E09E8349815A819B
:105820006B817C818D810E94FD27B394AA0C27E0B7
:10583000B212DFCFF8013197C082D3943AE0D3128D
:10584000CCCF0E94520C55C080912E03843029F198
:1058500080E00E94A0091092D80220E40FB6F894CC
:10586000A895209260000FBE2093600083B7817FCF
:10587000846083BF83B7816083BF7894889583B742
:105880008E7F83BF0FB6F894A895809160008861E1
:1058900080936000109260000FBE8091D90288232F
:1058A00009F479CF0E94741CE3EFF2E08191811139
:1058B00004C04E165F06D1F76ECF80E189BD82E14C
:1058C00089BD09B400FEFDCF8091D8008F7D809303
:1058D000D8008091E00082608093E0008091E00039
:1058E00081FDFCCF0E94FD1356CF981372CF0E940A
:1058F000A7280E942F0C882341F1E0906A03F090C2
:105900006B03E114F10409F180916C0390916D0334
:105910000E94790A8C01C7010E94491E80179107D5
:10592000A0F480916A0390916B03992734E0880F6B
:10593000991F3A95E1F7FC01ED58FC4F208122FDBB
:1059400004C082599C4F0E940A178091B10388239A
:1059500009F465C08091B003E091B303E695E81BBC
:10596000E093EA02823009F07AC0F0E0EF5EF84F8F
:10597000E4910E2F10E021ECC22E2FE0D22E809168
:10598000EB02882361F01092EB020E94850C909349
:10599000E9028093E8021092ED021092EC020E945C
:1059A000850C9C018091E8029091E902A901481BB5
:1059B000590B4F3F5F4798F54091E7024423B1F000
:1059C0001092E7024091E5025091E602241B350B4C
:1059D0002F3F3F4758F4405D5A485093E6024093AA
:1059E000E5022091B20328602093B203E090EC021C
:1059F000F090ED02800F911F9093E9028093E802EE
:105A000088EE92E0F60109958091EC029091ED020A
:105A1000892B29F4EF2819F0F1E0F093E7020E94B6
:105A2000900C9091EE02891721F08093EE020E9473
:105A30005C0A80912E03843009F0A9CE83E0809324
:105A4000E9008091E80082FFA2CE8091E80085FD08
:105A500076C08091E8008B778093E80098CE08E2CA
:105A600010E062E7C62E6EE0D62E883109F487CFAB
:105A7000E8F48F3009F447C060F4863069F189306A
:105A800009F435C000ED17E09EE3C92E98E0D92E49
:105A900076CF8531B9F7F0E0EB5FF84FE4910E2F48
:105AA00010E0F2EFCF2EFDE0DF2E69CF04EF11E022
:105AB00056E0C52E5FE0D52E843209F460CF8532E2
:105AC00071F18332F9F6E3E0F7E005911491EFE626
:105AD000CE2EEFE0DE2E53CFF0E0E25FF84FE49100
